:100000000C9435000C945D000C945D000C945D0024
:100010000C945D000C945D000C945D000C945D00EC
:100020000C945D000C945D000C945D000C945D00DC
:100030000C945D000C945D000C945D000C945D00CC
:100040000C949D000C945D000C940E020C945102D3
:100050000C945D000C945D000C945D000C945D00AC
:100060000C945D000C945D000D0311241FBECFEFB6
:10007000D8E0DEBFCDBF11E0A0E0B1E0E2E7F9E0FB
:1000800002C005900D92A431B107D9F711E0A4E1A7
:10009000B1E001C01D92A93CB107E1F710E0CAE64A
:1000A000D0E004C02297FE010E94B304C836D107F5
:1000B000C9F70E9463030C948C040C94000040E880
:1000C00055E260E070E08FE191E00C948C02809149
:1000D00000010E947C0090931501809314014AE076
:1000E00050E0BC018FE191E00E94720464E670E090
:1000F00080E090E00C9411018E3008F08E508770F3
:100100002091020140E4249F90011124822B8093CE
:100110007C0080917A00806480937A0080917A00DC
:1001200086FDFCCF2091780030917900932F80E0FC
:10013000AC01422B9A01C90108951F920F920FB68C
:100140000F9211242F933F938F939F93AF93BF935D
:100150008091160190911701A0911801B091190199
:1001600030911E01232F2D5F2D3720F40196A11D04
:10017000B11D05C0232F2A570296A11DB11D209342
:100180001E018093160190931701A0931801B0935C
:10019000190180911A0190911B01A0911C01B0914D
:1001A0001D010196A11DB11D80931A0190931B01A1
:1001B000A0931C01B0931D01BF91AF919F918F91AE
:1001C0003F912F910F900FBE0F901F9018950F9396
:1001D0001F939FB7F89400911A0110911B01209171
:1001E0001C0130911D0186B5A89B06C08F3F21F0F0
:1001F0000F5F1F4F2F4F3F4F9FBF322F212F102FC9
:100200000027080F111D211D311D42E0000F111F95
:10021000221F331F4A95D1F7B801C9011F910F91D1
:100220000895CF92DF92EF92FF92CF93DF936B010D
:100230007C010E94E700EB010EC00E94E7006C1BEE
:100240007D0B683E734038F081E0C81AD108E108A0
:10025000F108C851DC4FC114D104E104F10469F77D
:10026000DF91CF91FF90EF90DF90CF900895789439
:1002700084B5826084BD84B5816084BD85B58260AB
:1002800085BD85B5816085BDEEE6F0E08081816049
:100290008083E1E8F0E01082808182608083808149
:1002A00081608083E0E8F0E0808181608083E1EB21
:1002B000F0E0808184608083E0EBF0E08081816009
:1002C0008083EAE7F0E080818460808380818260BF
:1002D00080838081816080838081806880831092A8
:1002E000C1000895FC0184859585FC01E05CFF4F09
:1002F00020813181FC01EE5BFF4F80819181281BC1
:10030000390B2F733327C9010895FC018485958526
:10031000FC01E05CFF4F40815181FC01EE5BFF4F2F
:10032000208131814217530741F00190F081E02D87
:10033000E80FF91F208130E002C02FEF3FEFC90125
:100340000895FC0184859585FC01E05CFF4F4081A8
:100350005181FC01EE5BFF4F208131814217530731
:1003600081F0A081B181A80FB91F8C9120813181CA
:100370002F5F3F4F2F73332731832083282F30E0A7
:1003800002C02FEF3FEFC9010895FC0181A188232E
:1003900029F0A489B5898C9186FFFBCF11A208951D
:1003A000CF93DF93FC0126853785D901A05CBF4F31
:1003B0008D919C91119701968F739927E901CE5BDE
:1003C000DF4F4881598184179507D9F30D90BC916F
:1003D000A02DA20FB31F6C93A685B785A05CBF4F5D
:1003E00011969C938E93A689B7892C9181E090E019
:1003F000078C02C0880F991F0A94E2F7282B2C93D0
:1004000081E081A30488F589E02D80818064808368
:1004100081E090E0DF91CF91089508951F920F92AF
:100420000FB60F9211242F933F934F938F939F9367
:10043000EF93FF938091C00082FD1CC04091C600E5
:100440008091C5019091C60101968F7399272091E3
:10045000C7013091C8018217930771F0E091C5017F
:10046000F091C601EB57FE4F40839093C6018093F5
:10047000C50102C08091C600FF91EF919F918F91BD
:100480004F913F912F910F900FBE0F901F90189595
:100490008FE191E00E947201892B11F00C940D0202
:1004A00008951F920F920FB60F9211242F933F932E
:1004B0008F939F93EF93FF9320918101309182015D
:1004C00080918301909184012817390731F480913C
:1004D000C1008F7D8093C10014C0E0918301F09131
:1004E0008401EF5BFE4F2081809183019091840114
:1004F00001968F73992790938401809383012093B1
:10050000C600FF91EF919F918F913F912F910F9096
:100510000FBE0F901F901895CF92DF92EF92FF922F
:10052000CF93DF93EC016A017B01411581EE5807FF
:1005300061057105F9F0EC89FD8981E090E008A082
:1005400002C0880F991F0A94E2F7808360E079E087
:100550008DE390E0A70196010E948F04215031099C
:10056000410951095695479537952795211580E101
:10057000380798F0EC89FD89108260E874E88EE114
:1005800090E0A70196010E948F0421503109410992
:1005900051095695479537952795E889F98930830C
:1005A000EA89FB89208319A2EE89FF89408181E0D5
:1005B00090E09C010C8C02C0220F331F0A94E2F7DA
:1005C000422B4083EE89FF8940819C010D8C02C043
:1005D000220F331F0A94E2F7422B4083EE89FF89F2
:1005E00040819C010E8C02C0220F331F0A94E2F757
:1005F000422B4083EE89FF8920810F8C02C0880F37
:10060000991F0A94E2F7809582238083DF91CF912E
:10061000FF90EF90DF90CF900895109222011092FA
:10062000210188EE93E0A0E0B0E080932301909355
:100630002401A0932501B093260187E091E09093D7
:10064000200180931F0185E891E090932C01809315
:100650002B0181E491E090932E0180932D0185EC94
:1006600090E09093300180932F0184EC90E0909380
:1006700032018093310180EC90E0909334018093BB
:10068000330181EC90E0909336018093350182EC48
:1006900090E0909338018093370186EC90E090933E
:1006A0003A018093390184E080933B0183E0809399
:1006B0003C0187E080933D0185E080933E0181E02D
:1006C00080933F0108950E9437010E945F00C8E4B3
:1006D000D2E00E9467002097E1F30E944802F9CF20
:1006E000CF92DF92EF92FF920F931F93CF93DF93FE
:1006F0006C01EB017A01E60EF71E00E010E00BC082
:100700006991D601ED91FC910190F081E02DC60137
:100710000995080F191FCE15DF0591F7C801DF9164
:10072000CF911F910F91FF90EF90DF90CF900895A0
:100730006115710581F0DB010D900020E9F7AD0135
:1007400041505109461B570BDC01ED91FC91028091
:10075000F381E02D099480E090E00895DC01ED91B3
:10076000FC910190F081E02D09940F931F93CF939A
:10077000DF93EC016DE00E94AE038C016AE0CE01D4
:100780000E94AE039C01200F311FC901DF91CF9160
:100790001F910F9108954F925F926F927F929F9257
:1007A000AF92BF92CF92DF92EF92FF920F931F937F
:1007B000CF93DF93CDB7DEB7A1970FB6F894DEBF26
:1007C0000FBECDBF5C016A017B01922E19A281E0B0
:1007D000821710F08AE0982E8E010F5D1F4F492C72
:1007E000512C612C712CC701B601A30192010E940A
:1007F0008F048C2D929E80191124015011098A308A
:1008000014F4805D01C0895CF801808369017A017C
:10081000C114D104E104F10431F7B801C5010E940B
:100820009803A1960FB6F894DEBF0FBECDBFDF913F
:10083000CF911F910F91FF90EF90DF90CF90BF90DD
:10084000AF909F907F906F905F904F900895CF9260
:10085000DF92EF92FF920F931F93CF93DF93EC0100
:100860006A017B012115310579F4E881F981019054
:10087000F081E02D642FDF91CF911F910F91FF90B8
:10088000EF90DF90CF9009942A30310519F477FD6D
:100890000EC02AE0B701A601CE01DF91CF911F91D2
:1008A0000F91FF90EF90DF90CF900C94CB036DE20F
:1008B0000E94AE038C0144275527BA014C195D09EB
:1008C0006E097F092AE0CE010E94CB03080F191F91
:1008D000C801DF91CF911F910F91FF90EF90DF90B2
:1008E000CF9008950F931F93CF93DF93EC019A015C
:1008F000AB01662757FD6095762F0E9427048C0177
:10090000CE010E94B5039801280F391FC901DF915C
:10091000CF911F910F910895F8940C94B704A1E220
:100920001A2EAA1BBB1BFD010DC0AA1FBB1FEE1F69
:10093000FF1FA217B307E407F50720F0A21BB30BB4
:10094000E40BF50B661F771F881F991F1A9469F730
:1009500060957095809590959B01AC01BD01CF018C
:100960000895EE0FFF1F0590F491E02D0994F8947F
:02097000FFCFB7
:100972000E000100000000D00170037201A1018588
:0409820001C50100AA
:00000001FF
